:1000000033C100005FC100005DC100005BC10000A2
:1000100059C1000057C1000055C1000053C1000084
:1000200051C100004FC100004DC100004BC1000094
:1000300049C1000047C1000045C1000043C10000A4
:1000400041C100003FC100003DC100003BC10000B4
:1000500039C1000037C1000035C100007EC5000075
:1000600031C100009CC40000D0C400002BC10000BE
:1000700029C1000027C1000025C1000023C10000E4
:1000800021C100001FC100001DC100001BC10000F4
:1000900019C1000017C1000015C1000013C1000004
:1000A00011C100000FC100000DC100000BC1000014
:1000B00009C1000007C1000005C1000003C1000024
:1000C00001C10000FFC00000FDC00000FBC0000037
:1000D000F9C00000F7C00000F5C00000F3C0000048
:1000E000F1C00000C401DB01DB01DB019901AC01BF
:1000F000B201BE01CB01B801D401DB01DB01DB01A0
:10010000DB01DB01DB018E01A6019001B401DB0103
:100110009701DB01B601CD01FF01040209021302C0
:100120001D02960227022F02370241024B0255029E
:1001300064026E029602780282028C02B702BA0250
:10014000A902AD02B302F102BE02C202C802CC0291
:10015000D002D602DA02DE02F102E402E802EC0288
:1001600000000A0B02090C0D0E0807030401000031
:10017000000000000000000000000000000000007F
:10018000000000000000000000000000121110003C
:10019000000000000000000000000000000000005F
:1001A000000000000000010210202008081020407C
:1001B000102040800201020108040201010204082B
:1001C00010204080804020100804020180040201B9
:1001D0008040201008040201080402010102040802
:1001E000102040800102040810204080050505050C
:1001F000070508080808020202020A0A080804049F
:1002000004040101010101010101030303030303CC
:100210000303040707070C0C0C0C0C0C0C0C02025B
:10022000020206060606060606060B0B0B0B0B0B58
:100230000B0B00002200250028002B002E003100AF
:10024000340002010000050108010B01000021003B
:10025000240027002A002D00300033000101000097
:10026000040107010A01370511241FBECFEFD1E2B7
:10027000DEBFCDBF00E00CBF12E0A0E0B2E0EEE0D8
:10028000FDE000E00BBF02C007900D92A031B10766
:10029000D9F722E0A0E1B2E001C01D92A73BB2076E
:1002A000E1F712E0C8E6D2E000E005C022970109BC
:1002B000FE010BBF26D5C636D10780E00807B1F78F
:1002C00042D423C59DCE61E087E08CD161E086E019
:1002D00089D161E084E086D161E083E083D126E0CA
:1002E00040E855E260E070E081E192E0F8C281E12F
:1002F00092E0E6D1181619060CF05DC081E192E09B
:10030000F8D18093100290E0FC01E156F109EA3146
:10031000F10508F050C0EE58FF4FEDC461E01DC07C
:1003200061E087E098D166E970E086E043C061E073
:100330000EC060E087E08FD160E070E086E03CD0E6
:1003400060E084E088D160E070E033C060E087E086
:1003500082D16FEF70E0E9CF60E087E07CD162E3AB
:1003600070E0E3CF60E0DDCF61E003C061E007C093
:1003700060E084E070D162E370E01BC060E084E084
:100380006AD166E970E015C061E087E064D16FEF83
:1003900070E086E011D061E008C060E087E05BD1EA
:1003A0006FEF70E086E008D060E084E054D16FEF3A
:1003B00070E083E001C008951F93CF93DF93182F5F
:1003C000EB0161E00FD1209711F460E004C0CF3F52
:1003D000D10531F461E0812FDF91CF911F913BC1B5
:1003E000E12FF0E0E05AFE4F449150E0FA013197DE
:1003F000E231F10508F09AC0E457FF4F7CC484B5A0
:10040000806884BDC7BD97C084B5806284BDC8BD07
:1004100092C080918000806880938000D093890092
:10042000C093880088C080918000806280938000A3
:10043000D0938B00C0938A007EC08091800088603A
:1004400080938000D0938D00C0938C0074C0809105
:10045000B00080688093B000C093B3006CC08091FE
:10046000B00080628093B000C093B40064C08091FB
:100470009000806880939000D0939900C09398007A
:100480005AC080919000806280939000D0939B002E
:10049000C0939A0050C08091900088608093900033
:1004A000D0939D00C0939C0046C08091A0008068BE
:1004B0008093A0008091A0008F7B8093A000D093B8
:1004C000A900C093A80037C08091A00080628093EB
:1004D000A000D093AB00C093AA002DC08091A000D3
:1004E00088608093A000D093AD00C093AC0023C07F
:1004F00080912001806880932001D0932901C093CE
:10050000280119C080912001806280932001D0933E
:100510002B01C0932A010FC0809120018860809335
:100520002001D0932D01C0932C0105C0C038D10506
:100530000CF050CF4ACFDF91CF911F91089590E0FA
:10054000FC013197E231F10508F04BC0E256FF4F54
:10055000D2C3809180008F7703C0809180008F7D0F
:1005600080938000089580918000877FF9CF84B5C3
:100570008F7702C084B58F7D84BD08958091B000CF
:100580008F7703C08091B0008F7D8093B000089575
:10059000809190008F7707C0809190008F7D03C07D
:1005A00080919000877F8093900008958091A000B3
:1005B0008F7707C08091A0008F7D03C08091A0003D
:1005C000877F8093A0000895809120018F7707C0D6
:1005D000809120018F7D03C080912001877F8093CF
:1005E00020010895CF93DF9390E0FC01EA55FE4F80
:1005F0002491FC01E451FE4F8491882349F190E05D
:10060000880F991FFC01E45BFD4FA591B4918E5CAE
:100610009D4FFC01C591D4919FB7611108C0F8941A
:100620008C91209582238C93888182230AC062302A
:1006300051F4F8948C91322F309583238C938881D8
:10064000822B888304C0F8948C91822B8C939FBF5B
:10065000DF91CF9108950F931F93CF93DF931F9254
:10066000CDB7DEB7282F30E0F901E05AFE4F849174
:10067000F901EA55FE4F1491F901E451FE4F04913E
:100680000023C1F0882319F0698359DF6981E02FC5
:10069000F0E0EE0FFF1FEE5CFD4FA591B4919FB708
:1006A000F8948C91611103C01095812301C0812BB6
:1006B0008C939FBF0F90DF91CF911F910F91089561
:1006C000FC01818D228D90E0805C9F4F821B9109FF
:1006D0008F7399270895FC01918D828D981731F0C1
:1006E000828DE80FF11D858D90E008958FEF9FEFCB
:1006F0000895FC01918D828D981761F0828DDF0144
:10070000A80FB11D5D968C91928D9F5F9F73928F04
:1007100090E008958FEF9FEF08958EE295E0892B8A
:1007200039F080E090E0892B19F098D1811125C033
:1007300080E090E0892B41F080E090E0892B21F06F
:100740000E94000081111CC080E090E0892B41F0E4
:1007500080E090E0892B21F00E940000811113C0FD
:1007600080E090E0892BA1F080E090E0892B81F07F
:100770000E94000081110AC008950E940000D8CF95
:100780000E940000E1CF0E940000EACF0C9400001C
:100790000895FC01848DDF01A80FB11DA35ABF4F3E
:1007A0002C91848D90E001968F739927848FA68970
:1007B000B7892C93A089B1898C9180648C93938D97
:1007C000848D981306C00288F389E02D80818F7D87
:1007D00080830895CF93DF93EC01888D8823C1F047
:1007E000EA89FB89808185FD05C0A889B9898C913A
:1007F00086FD0EC00FB607FCF5CF808185FFF2CFD6
:10080000A889B9898C9185FFEDCFCE01C2DFE8CFF1
:10081000DF91CF910895CF92DF92FF920F931F93B4
:10082000CF93DF931F92CDB7DEB76C0181E0D60185
:1008300058968C9358975B969C915B975C968C919D
:100840005C97981307C05096ED91FC915197808169
:1008500085FD2DC0F601038D10E00F5F1F4F0F7354
:100860001127F02EF601848DF81210C00FB607FC88
:10087000F9CFD6015096ED91FC915197808185FF7B
:10088000F1CFC601698385DF6981ECCF838DE80FE5
:10089000F11DE35AFF4F6083D6015B960C935B9783
:1008A0005296ED91FC915397808180620CC0D601E5
:1008B0005696ED91FC91579760835096ED91FC917F
:1008C000519780818064808381E090E00F90DF9178
:1008D000CF911F910F91FF90DF90CF900895BF921D
:1008E000CF92DF92EF92FF92CF93DF93EC016A01F8
:1008F0007B01B22EE889F98982E08083411581EE7F
:1009000058076105710599F060E079E08DE390E0AA
:10091000A7019601CED121503109410951095695BF
:10092000479537952795211580E1380790F0E8899C
:10093000F989108260E874E88EE190E0A7019601E1
:10094000B8D121503109410951095695479537953C
:100950002795EC85FD853083EE85FF852083188EF5
:10096000EC89FD89B082EA89FB898081806180837E
:10097000EA89FB89808188608083EA89FB8980819C
:1009800080688083EA89FB8980818F7D8083DF9105
:10099000CF91FF90EF90DF90CF90BF9008951F927E
:1009A0000F920FB60F9211240BB60F922F938F93C5
:1009B0009F93EF93FF93E0912102F09122028081B7
:1009C000E0912702F091280282FD12C0908180916F
:1009D0002A028F5F8F7320912B02821751F0E091D2
:1009E0002A02F0E0EF5EFD4F958F80932A0201C04E
:1009F0008081FF91EF919F918F912F910F900BBE6E
:100A00000F900FBE0F901F9018951F920F920FB668
:100A10000F9211240BB60F922F933F934F935F9336
:100A20006F937F938F939F93AF93BF93EF93FF93B6
:100A300081E192E0AEDEFF91EF91BF91AF919F9186
:100A40008F917F916F915F914F913F912F910F9077
:100A50000BBE0F900FBE0F901F90189581E192E092
:100A60002FDE21E0892B09F420E0822F08951092D7
:100A700014021092130288EE93E0A0E0B0E080939D
:100A8000150290931602A0931702B093180284E007
:100A900092E0909312028093110285EC90E0909383
:100AA0001E0280931D0284EC90E0909320028093BC
:100AB0001F0280EC90E0909322028093210281EC4F
:100AC00090E0909324028093230282EC90E0909334
:100AD00026028093250286EC90E090932802809372
:100AE000270210922A0210922B0210922C021092CE
:100AF0002D020895CF92DF92EF92FF920F931F93F2
:100B0000CF93DF937C016A01EB0100E010E00C154C
:100B10001D0571F06991D701ED91FC910190F08173
:100B2000E02DC7011995892B19F00F5F1F4FEFCFEB
:100B3000C801DF91CF911F910F91FF90EF90DF904F
:100B4000CF900895089553D0FDDFBDDBCDE8D3E00D
:100B5000CEDB2097E9F3E1DDFBCF1F920F920FB6BA
:100B60000F9211242F933F938F939F93AF93BF9333
:100B70008091AF029091B002A091B102B091B20207
:100B80003091AE0223E0230F2D3720F40196A11DF2
:100B9000B11D05C026E8230F0296A11DB11D2093AB
:100BA000AE028093AF029093B002A093B102B093D3
:100BB000B2028091B3029091B402A091B502B091BB
:100BC000B6020196A11DB11D8093B3029093B402A9
:100BD000A093B502B093B602BF91AF919F918F9150
:100BE0003F912F910F900FBE0F901F901895789402
:100BF00084B5826084BD84B5816084BD85B5826022
:100C000085BD85B5816085BDEEE6F0E080818160BF
:100C10008083E1E8F0E010828081826080838081BF
:100C200081608083E0E8F0E0808181608083E1EB97
:100C3000F0E0808184608083E0EBF0E0808181607F
:100C40008083E1E9F0E0808182608083808181603F
:100C50008083E0E9F0E0808181608083E1EAF0E078
:100C6000808182608083808181608083E0EAF0E01F
:100C7000808181608083E1E2F1E080818260808315
:100C8000808181608083E0E2F1E080818160808307
:100C9000EAE7F0E0808184608083808182608083E5
:100CA0008081816080838081806880831092C10010
:100CB0000895A1E21A2EAA1BBB1BFD010DC0AA1F9D
:100CC000BB1FEE1FFF1FA217B307E407F50720F0B5
:100CD000A21BB30BE40BF50B661F771F881F991F30
:100CE0001A9469F760957095809590959B01AC0179
:100CF000BD01CF010895EE0FFF1F0590F491E02D87
:0E0D000019940790F691E02D1994F894FFCF06
:100D0E00000000000B047A05600379036B03EA030D
:00000001FF
